:100000000C9436000C945E000C945E000C945E0020
:100010000C945E000C945E000C945E000C945E00E8
:100020000C945E000C9458040C945E000C945E00DA
:100030000C945E000C945E000C945E000C945E00C8
:100040000C945E000C945E000C945E000C945E00B8
:100050000C945E000C945E000C945E000C945E00A8
:100060000C945E000C945E003401350111241FBE17
:10007000CFEFD8E0DEBFCDBF11E0A0E0B1E0E8EB0C
:10008000FCE002C005900D92AC30B107D9F711E049
:10009000ACE0B1E001C01D92AF35B107E1F710E06F
:1000A000CAE6D0E004C02297FE010E941805C836B7
:1000B000D107C9F70E9466000C944F060C9400000B
:1000C000809100018F5F809300010895CF92DF92AD
:1000D000EF92FF920F931F93DF93CF93CDB7DEB7CD
:1000E0002D970FB6F894DEBF0FBECDBF8FEF8AB944
:1000F00080E384B988E893E10E9474017E0108944A
:10010000E11CF11C07E8C02E17E4D12E45B14E7F4B
:1001100035B13D7F25B12F7E85B1C70162E02D87C6
:100120003C874B870E943A014B853C852D85809109
:100130007A0086FDFCCFC0927A00D0927C0080913C
:100140007A00806480937A0080917A0084FFFCCFEB
:100150008091780090917900192F00E090E0802B39
:10016000912B4295440F407E3295330F330F307CF4
:10017000342B422F440F440F440F432B29813A81E3
:10018000369527953695279561E08217930708F0F5
:1001900060E0462B29853A85369527953695279533
:1001A00061E070E08217930710F060E070E07695F0
:1001B000762F662777956795642B2F81388536953E
:1001C00027953695279541E050E08217930710F068
:1001D00040E050E042955295507F5427407F54278D
:1001E000462B2D813E81369527953695279561E0E2
:1001F00070E08217930710F060E070E0660F771FE1
:10020000660F771F642B2B813C8136952795369599
:10021000279541E050E08217930710F040E050E04E
:10022000440F551F462B4BB92A9870CF80917A0006
:1002300086FDFCCF87E880937A0087E480937C007A
:1002400080917A00806480937A0080917A0084FFA4
:10025000FCCF2091780030917900932F80E030E03E
:10026000282B392BC901089508958CE091E00E9454
:100270003A0408959C01462F8CE091E0B9010E9458
:100280009B0308950F93DF93CF9300D000D00F927C
:10029000CDB7DEB79C01962FDE011196E1E0F1E0CB
:1002A00085E001900D928150E1F7BE016F5F7F4FB5
:1002B000992329F08CE091E045E00FEF04C08CE039
:1002C00091E045E003E10E94DD018CE091E00E94B5
:1002D000C5010E94B4040F900F900F900F900F90E3
:1002E000CF91DF910F91089560E00E94420108953F
:1002F000FC011182108213821282158214821782ED
:100300001682613118F080E1808701C06087208B00
:10031000483060F481E090E002C0880F991F4A9550
:10032000E2F74AE250E02BE230E029C04E3080F4A0
:10033000242F30E02850304081E090E002C0880F48
:10034000991F2A95E2F744E250E025E230E017C019
:10035000453130F080E040E050E020E030E00FC078
:10036000242F30E02E50304081E090E002C0880F12
:10037000991F2A95E2F747E250E028E230E08187B2
:1003800033872287558744870895DC011C96ED91B9
:10039000FC911D97309781F0808119969C91199757
:1003A000892B80831A96ED91FC911B979081199669
:1003B0008C918095892380830895A0E0B0E0E3EEDE
:1003C000F1E00C94E704EC015B01642F7901402F0C
:1003D00020E00E947801CE018F5B9F4FFC011082CC
:1003E000DE01AE5BBF4F1C92FE01ED5BFF4F108242
:1003F000FF86EE8640E061E070E06F017D018C01D8
:100400004EC0F501E40FF11D8081883050F49B014E
:1004100002C0220F331F8A95E2F7922F29E230E0C3
:100420001FC08E3060F490E00897FB0102C0EE0F11
:10043000FF1F8A95E2F79E2F23E230E011C085313D
:1004400020F090E020E030E00BC090E00E979B01A0
:1004500002C0220F331F8A95E2F7922F26E230E086
:10046000E42FF0E0DE01AE0FBF1F51969C93EE0F1C
:10047000FF1FEC0FFD1F32A321A32332310511F41E
:10048000F80109C02632310511F4F70104C0293200
:10049000310521F4F6018081982B90834F5F888588
:1004A000481708F4AECFCDB7DEB7EAE00C940305E9
:1004B000A0E0B0E0EEE5F2E00C94E504EC015B01B5
:1004C000CF5BDF4F4991A9918880C354D04090E021
:1004D00009C0E92FF0E0EE0FFF1FEA0DFB1D1182AE
:1004E00010829F5F88859817A0F384B1CF5BDF4FA0
:1004F0003991832B84B987B12991822B87B98AB12D
:100500009881C354D040892B8AB985B1832B85B992
:1005100088B1822B88B98BB1892B8BB9EAE0F0E0E6
:100520006F9364E06A95F1F76F913197C9F784B1E1
:100530003095832384B987B12095822387B98AB106
:10054000909589238AB985B1382335B988B1282394
:1005500028B98BB198239BB99090B000C090B1009E
:100560008091B00083608093B00082E08093B100FE
:10057000D090B20060E070E03AC05091B2005D19D6
:10058000650F711DE3B0E41609F04FC0F6B0FA161E
:1005900009F04BC089B1881509F047C025C0A42FC8
:1005A000B0E09D01220F331F8501020F131FF801D8
:1005B00080819181892BA1F42C0F3D1FF90181A12C
:1005C00092A1FC01208130E0AC0FBD1F51968C91AF
:1005D00090E028233923232B19F4F80171836083D9
:1005E0004F5F88854817D8F2D50E4E2DAF2D8E85DA
:1005F0009F856817790708F29092B000C092B10009
:1006000020E00FC0E22FF0E0EE0FFF1FEA0DFB1D10
:1006100080819181892B21F48E859F8591838083B0
:100620002F5F8885281770F305C0E3B0F6B089B056
:1006300040E0D7CFCDB7DEB7ECE00C940105A0E0E9
:10064000B0E0E5E2F3E00C94E904EC018B01D0901A
:100650007C00E0907A00C7B0F8B080917A0086FD07
:10066000FCCF90E009C0E92FF0E0EE0FFF1FE00F94
:10067000F11F118210829F5F88859817A0F397B1B0
:100680008AA18095982397B998B1892388B987E87A
:1006900080937A0050E025C0FE01E40FF11D8189AE
:1006A000806480937C0080917A00806480937A00DB
:1006B00080917A0086FDFCCFE42FF0E0EE0FFF1F63
:1006C000E00FF11F209178003091790080819181B5
:1006D000820F931F918380834F5F88854817E0F2D4
:1006E0005F5F89A1581710F040E017C040E0F5CFD8
:1006F000E42FF0E0EE0FFF1FE00FF11F69A1862F3E
:1007000090E09595879520813181820F931F70E04D
:100710000E94CB04718360834F5F8885481740F344
:10072000D0927C00E0927A00F8B8C7B8CDB7DEB7B7
:10073000E8E00C940505A0E2B0E0E1EAF3E00C94F7
:10074000E8048C017B01D42E842F81508230B0F4D8
:10075000D8011C96ED91FC911D97309779F080811E
:1007600019969C911997892B80831A96ED91FC918B
:100770001B97808119969C91892B8083F801808931
:10078000882349F5C02EB12EC801B7010E94580236
:10079000D8011C96ED91FC911D97309781F08081D6
:1007A00019969C911997892B80831A96ED91FC914B
:1007B0001B97908119968C91809589238083B2E054
:1007C000DB1609F053C08C2D9B2DBE016F5F7F4F50
:1007D0000E94580227C0C02EB12EC801B7010E9446
:1007E0001F03D8011C96ED91FC911D97309781F065
:1007F000808119969C911997892B80831A96ED9187
:10080000FC911B97908119968C9180958923808308
:10081000B2E0DB1659F58C2D9B2DBE016F5F7F4F2B
:100820000E941F0340E0BE016F5F7F4F1AC0E42F9C
:10083000F0E0EE0FFF1F6701CE0EDF1EE60FF71F81
:10084000D8011E962D913C911F9780819181281B84
:10085000390BF60180819181820F931F91838083F0
:100860004F5FD80118968C91481708F3A096E9E0DD
:100870000C940405CF93DF93EC018A819B81009750
:1008800011F00E94B6058E819F81009711F00E94A1
:10089000B60588819981009711F00E94B6058C8178
:1008A0009D81009711F00E94B605DF91CF910895C8
:1008B0002F928F939F932FB6809151019091520167
:1008C0000196809351019093520190E080915301E1
:1008D000891F80935301909159019C5F9093590116
:1008E0008091580180519742C0F0909359018093B4
:1008F00058018091540190915501019680935401C3
:100900009093550190E080915601891F8093560184
:1009100080915701891F809357012FBE9F918F911E
:100920002F901895A0E7B0E08C918E7F8C93E0EB30
:10093000F0E0808183608083E1EBF0E08081807F64
:100940008083808182608083B89A8C9181608C934F
:100950007894089580915A01882329F481E0809346
:100960005A010E94920408950E94AA04E0E7F0E070
:1009700080818E7F808310925401109255011092D5
:10098000560110925701109259011092580180811E
:10099000816080830895AA1BBB1B51E107C0AA1F79
:1009A000BB1FA617B70710F0A61BB70B881F991F10
:1009B0005A95A9F780959095BC01CD0108952F9285
:1009C0003F924F925F926F927F928F929F92AF92DF
:1009D000BF92CF92DF92EF92FF920F931F93CF932C
:1009E000DF93CDB7DEB7CA1BDB0B0FB6F894DEBFC3
:1009F0000FBECDBF09942A88398848885F846E84E9
:100A00007D848C849B84AA84B984C884DF80EE8032
:100A1000FD800C811B81AA81B981CE0FD11D0FB63B
:100A2000F894DEBF0FBECDBFED010895EE0FFF1F9E
:100A30000590F491E02D0994CF93DF9382309105D6
:100A400010F482E090E0E0915D01F0915E0140E001
:100A500050E020E030E026C060817181681779079E
:100A6000E0F06817790781F48281938121153105BF
:100A700031F0D90113969C938E9312972BC09093CB
:100A80005E0180935D0126C04115510519F0641780
:100A9000750718F4AB01E901DF019F0172816381E1
:100AA000E72FF62F3097C1F64115510501F1481B8C
:100AB000590B4430510580F412968D919C911397F7
:100AC000209719F09B838A8304C090935E018093E2
:100AD0005D01FD01329646C0FD01E40FF51F8193D3
:100AE00091934250504011965C934E933BC020919D
:100AF0005B0130915C012115310541F42091080121
:100B00003091090130935C0120935B0120910A012F
:100B100030910B012115310541F42DB73EB74091BD
:100B2000060150910701241B350BE0915B01F09108
:100B30005C01E217F307A0F42E1B3F0B28173907BF
:100B400078F0AC014E5F5F4F2417350748F04E0F29
:100B50005F1F50935C0140935B018193919302C0AE
:100B6000E0E0F0E0CF01DF91CF910895CF93DF93E4
:100B7000009709F491C0FC013297138212826091B0
:100B80005D0170915E016115710581F420813181F3
:100B9000280F391F80915B0190915C0182179307A8
:100BA00099F5F0935C01E0935B0176C0DB0180E096
:100BB00090E002C0CD01D901AE17BF0748F41296EC
:100BC0002D913C91139721153105A1F7CD0121C03D
:100BD000B383A283EF01499159919E01240F351FE0
:100BE000A217B30779F42D913C911197240F351F6B
:100BF0002E5F3F4F3183208312962D913C911397A6
:100C000033832283009729F4F0935E01E0935D0122
:100C100043C0DC011396FC93EE9312974D915D91C6
:100C2000A40FB51FEA17FB0769F420813181240F57
:100C3000351F2E5F3F4FEC0139832883228133819A
:100C40003B832A83E0E0F0E002C0FB01BC01DB0152
:100C500012968D919C9113970097B9F79B012E5F87
:100C60003F4F8D919C911197820F931F40915B0193
:100C700050915C014817590779F4309729F4109284
:100C80005E0110925D0102C0138212822250304038
:100C900030935C0120935B01DF91CF91089510E0C8
:100CA000CAE6D0E004C0FE010E9418052296CC36A8
:080CB000D107C9F7F894FFCF4A
:0C0CB800010E0F10111220005F0100005F
:00000001FF
